:100000000C94FF030C942B040C942B040C942B04E1
:100010000C942B040C942B040C942B040C942B04A4
:100020000C942B040C942B040C942B040C942B0494
:100030000C942B040C942B040C942B040C942B0484
:100040000C942B040C942B040C942B040C942B0474
:100050000C942B040C942B040C942B040C9401177B
:100060000C942B040C945D190C94891A0C942B0499
:100070000C942B040C942B040C942B040C942B0444
:100080000C942B040C942B040C942B040C942B0434
:100090000C9496190C94C81A0C942B040C942B04F1
:1000A0000C942B040C942B040C942B040C942B0414
:1000B0000C942B040C942B040C942B040C942B0404
:1000C0000C942B040C942B040C942B040C94CF193B
:1000D0000C94071B0C942B040C94081A0C94461BCC
:1000E0000C942B0400002100240027002A002D007E
:1000F0003000330001010000040107010A01000083
:100100002200250028002B002E00310034000201BF
:100110000000050108010B0100002000230026005B
:1001200029002C002F00320000010000030106010D
:10013000090105050505070508080808020202026D
:100140000A0A080804040404010101010101010173
:100150000303030303030303040707070C0C0C0C3E
:100160000C0C0C0C02020202060606060606060627
:100170000B0B0B0B0B0B0B0B0102102020080810B4
:100180002040102040800201020108040201010207
:1001900004081020408080402010080402018004E0
:1001A000020180402010080402010804020101023B
:1001B0000408102040800102040810204080000044
:1001C000090A02080B0C0D070603040100000000D9
:1001D000000000000000000000000000000000001F
:1001E0000000000000000000000011100F000000DF
:1001F00000000000000000000000000000000000FF
:100200000000000000000000003E5B4F5B3E3E6BC4
:100210004F6B3E1C3E7C3E1C183C7E3C181C577DA0
:10022000571C1C5E7F5E1C00183C1800FFE7C3E7EC
:10023000FF0018241800FFE7DBE7FF30483A060EFE
:100240002629792926407F050507407F05253F5A45
:100250003CE73C5A7F3E1C1C08081C1C3E7F1422B5
:100260007F22145F5F005F5F06097F017F00668960
:10027000956A606060606094A2FFA29408047E04A6
:100280000810207E201008082A1C08081C2A0808CC
:100290001E101010100C1E0C1E0C30383E3830068C
:1002A0000E3E0E06000000000000005F0000000788
:1002B000000700147F147F14242A7F2A12231308B6
:1002C000646236495620500008070300001C224192
:1002D000000041221C002A1C7F1C2A08083E080836
:1002E00000807030000808080808000060600020E6
:1002F000100804023E5149453E00427F40007249C9
:100300004949462141494D331814127F102745456C
:1003100045393C4A49493141211109073649494982
:1003200036464949291E00001400000040340000F0
:100330000008142241141414141400412214080259
:10034000015909063E415D594E7C1211127C7F49CC
:100350004949363E414141227F4141413E7F494921
:1003600049417F090909013E414151737F0808084D
:100370007F00417F41002040413F017F081422411E
:100380007F404040407F021C027F7F0408107F3E78
:100390004141413E7F090909063E4151215E7F09E5
:1003A000192946264949493203017F01033F40404C
:1003B000403F1F2040201F3F4038403F6314081437
:1003C0006303047804036159494D43007F4141416F
:1003D0000204081020004141417F04020102044050
:1003E00040404040000307080020545478407F28D4
:1003F0004444383844444428384444287F385454CA
:10040000541800087E090218A4A49C787F080404EC
:100410007800447D40002040403D007F102844008B
:1004200000417F40007C047804787C08040478381C
:1004300044444438FC1824241818242418FC7C084C
:10044000040408485454542404043F44243C4040C9
:10045000207C1C2040201C3C4030403C442810287C
:10046000444C9090907C4464544C440008364100C5
:100470000000770000004136080002010204023C3F
:100480002623263C1EA1A161123A4040207A38540E
:100490005455592155557941215454784121555489
:1004A000784020545579400C1E52721239555555DA
:1004B00059395454545939555454580000457C41C5
:1004C0000002457D420001457C40F0292429F0F0DE
:1004D000282528F07C545545002054547C547C0A2F
:1004E000097F4932494949323248484832324A48FC
:1004F00048303A4141217A3A42402078009DA0A0FC
:100500007D39444444393D4040403D3C24FF24244F
:10051000487E4943662B2FFC2F2BFF0929F620C06C
:10052000887E090320545479410000447D413048BD
:10053000484A32384040227A007A0A0A727D0D1900
:10054000317D2629292F28262929292630484D4062
:1005500020380808080808080808382F10C8ACBA5E
:100560002F102834FA00007B000008142A142222DD
:10057000142A1408AA005500AAAA55AA55AA0000D0
:1005800000FF00101010FF00141414FF001010FFE3
:1005900000FF1010F010F0141414FC001414F700F5
:1005A000FF0000FF00FF1414F404FC141417101FC4
:1005B00010101F101F1414141F00101010F0000052
:1005C00000001F101010101F10101010F01000006D
:1005D00000FF101010101010101010FF100000007D
:1005E000FF140000FF00FF00001F10170000FC04B4
:1005F000F414141710171414F404F40000FF00F797
:1006000014141414141414F700F7141414171410F9
:10061000101F101F141414F4141010F010F0000028
:100620001F101F0000001F14000000FC140000F049
:1006300010F01010FF10FF141414FF141010101FEE
:1006400000000000F010FFFFFFFFFFF0F0F0F0F0FF
:10065000FFFFFF0000000000FFFF0F0F0F0F0F381C
:10066000444438447C2A2A3E147E02020606027E56
:10067000027E0263554941633844443C04407E2075
:100680001E2006027E020299A5E7A5991C2A492A86
:100690001C4C7201724C304A4D4D30304878483015
:1006A000BC625A463D3E494949007E0101017E2A0D
:1006B0002A2A2A2A44445F444440514A4440404440
:1006C0004A51400000FF0103E080FF000008086B72
:1006D0006B083612362436060F090F06000018186C
:1006E0000000001010003040FF0101001F01011E3A
:1006F00000191D1712003C3C3C3C00000000000F9C
:100700000180961180FFB103012C2DB203012C2D25
:10071000B306012C2D012C2DB40107C003A20284C5
:10072000C101C5C2020A00C3028A2AC4028AEEC5F8
:10073000010E20003601C83A0105022A0400020019
:10074000812B04000100A0022A040000007F2B047A
:100750000000009F04E010021C07123732292D29E7
:10076000252B3900010310E110031D07062E2C294B
:100770002D2E2E373F0000021013800A29806412AC
:100780000180321180FF3A81050AB1830006030A15
:10079000360108B6021502B40100C08202700AC117
:1007A0000105C2020102C5823C380AFC021115E0B3
:1007B0001009160920211B131917151E2B040502F9
:1007C0000EE1900B14081E221D181E1B1A242B0666
:1007D00006020F0A2A04000200812B040002008195
:1007E00013800A2980FF7C3C3E5E2B3D3F2F5B5DE2
:1007F0003B2C2A225C00ED0B1416B01C2D28112472
:100800001FBECFEFD1E2DEBFCDBF00E00CBF15E0D1
:10081000A0E0B2E0E0EDFFE700E00BBF02C0079010
:100820000D92AA37B107D9F71AE0AAE7B5E001C0DF
:100830001D92AC3BB107E1F717E0CEEFD7E004C063
:100840002297FE010E94E23FC63FD107C9F70E94EE
:1008500006200C94183D0C9400000F931F93CF9327
:10086000DF93EC018B01FC01EC55FF4F80819181FE
:10087000BE010E940714CE010E94240E0330110510
:1008800034F0CE010E94CE0ECE010E94240ECE0185
:100890000E94240EDF91CF911F910F9108952F9206
:1008A0003F924F925F926F927F928F929F92AF9200
:1008B000BF92CF92DF92EF92FF920F931F93CF934D
:1008C000DF93EC01CC56DF4FA880B980C459D040EB
:1008D000FE01EA56FF4F20803180CE0161E070E0DA
:1008E0000E942D0481E0C82ED12C442455243501CA
:1008F00008946108710845010894811C911C88E0E6
:10090000C816D104A1F181017601E20CF31CCE01DD
:10091000B501A70124E534E00E949109CE01B3019D
:10092000A70124E534E00E949109CE01B401A7019A
:1009300024E534E00E9491090C191D09CE01B5018E
:10094000A80124E534E00E949109CE01B301A80179
:1009500024E534E00E949109CE01B401A80124E508
:1009600034E00E94910981E0C816D10481F181012F
:100970007201E20CF31CCE01B501A7012AE534E0B7
:100980000E949109CE01B301A7012AE534E00E943B
:100990009109CE01B401A7012AE534E00E94910932
:1009A00004191509CE01B501A8012AE534E00E9419
:1009B0009109CE01B301A8012AE534E00E94910912
:1009C000CE01B401A8012AE534E00E949109CE01CC
:1009D000B6010E942D040894C11CD11C0894411C2E
:1009E000511C89E0C816D10409F089CFDF91CF915D
:1009F0001F910F91FF90EF90DF90CF90BF90AF903D
:100A00009F908F907F906F905F904F903F902F902E
:100A100008952F923F924F925F926F927F928F92A2
:100A20009F92AF92BF92CF92DF92EF92FF920F937D
:100A30001F93DF93CF93CDB7DEB762970FB6F894CD
:100A4000DEBF0FBECDBF8C569F4FFC0181919191AF
:100A5000FA8BE98B9E838D830190F081E02DFC83DE
:100A6000EB8389899A89865990409A8B898B61E0BA
:100A700070E00E942D04E1E0F0E0FA83E9838D81CB
:100A80009E81019698878F832B803C800894211C3F
:100A9000311C4D805E800894410851086B807C8039
:100AA000089461087108ED81FE813296FA87E98722
:100AB0008B819C8102969C878B87ED81FE8132978A
:100AC000FE87ED878B819C810297988B8F87E981C8
:100AD000FA81319719F589899A896F817885A10101
:100AE00020E634E00E94910989899A89B201A10126
:100AF00020E634E00E94910989899A89B201A30114
:100B000020E634E00E94910989899A896F8178856D
:100B1000A30120E634E00E94910943C189819A81B2
:100B2000029709F08CC089899A8969857A854B85F5
:100B30005C8520E634E00E94910989899A896D8557
:100B40007E854B855C8520E634E00E949109898989
:100B50009A896D857E854F85588920E634E00E940C
:100B6000910989899A8969857A854F85588920E60E
:100B700034E00E94910922E0822E912CAD80BE804B
:100B8000A80CB91C89899A89B501A10120E634E035
:100B90000E949109ED80FE80E818F90889899A89F8
:100BA000B701A30120E634E00E949109CB80DC80EC
:100BB000C80CD91C89899A89B201A60120E634E0C3
:100BC0000E9491090B811C810819190989899A8948
:100BD0006F817885A80120E634E00E949109898917
:100BE0009A89B701A10120E634E00E949109898920
:100BF0009A89B501A30120E634E00E949109898910
:100C00009A89B201A80120E634E00E9491098989FD
:100C10009A896F817885A60120E634E00E949109C7
:100C200089899A8962E070E00E942D040894811CF1
:100C3000911C94E08916910409F0A0CFB2C0E9811B
:100C4000FA81339709F0ADC089899A896F817885D7
:100C5000A1012AE534E00E94910989899A89B201AB
:100C6000A1012AE534E00E94910989899A89B2019B
:100C7000A3012AE534E00E94910989899A896F814C
:100C80007885A3012AE534E00E94910989899A892F
:100C900069857A854B855C852AE534E00E94910957
:100CA00089899A896D857E854B855C852AE534E046
:100CB0000E94910989899A896D857E854F85588919
:100CC0002AE534E00E94910989899A8969857A85A3
:100CD0004F8558892AE534E00E94910992E0892ED7
:100CE000912CAD80BE80A80CB91C89899A89B50168
:100CF000A1012AE534E00E949109ED80FE80E81808
:100D0000F90889899A89B701A3012AE534E00E948C
:100D10009109CB80DC80C80CD91C89899A89B201E1
:100D2000A6012AE534E00E9491090B811C81081973
:100D3000190989899A896F817885A8012AE534E0A3
:100D40000E94910989899A89B701A1012AE534E0B5
:100D50000E94910989899A89B501A3012AE534E0A5
:100D60000E94910989899A89B201A8012AE534E093
:100D70000E94910989899A896F817885A6012AE55F
:100D800034E00E94910989899A8963E070E00E94A9
:100D90002D040894811C911CF4E08F16910409F035
:100DA000A0CF89899A8969817A810E942D048981DD
:100DB0009A8101969A838983049709F088CE629676
:100DC0000FB6F894DEBF0FBECDBFCF91DF911F915C
:100DD0000F91FF90EF90DF90CF90BF90AF909F90DA
:100DE0008F907F906F905F904F903F902F900895DD
:100DF0004F925F926F927F928F929F92AF92BF922B
:100E0000CF92DF92EF92FF920F931F93CF93DF93D6
:100E1000EC01CC56DF4FC990D990E880F980C659D3
:100E2000D040CE0160E070E00E942D0426010894BD
:100E3000411C511C3601089461087108470108944F
:100E40008108910857010894A11CB11C00E010E032
:100E5000043011051CF5A4014E5F5F4FCE01B601B1
:100E600026E634E00E949109A50142505040CE018F
:100E7000B60126E634E00E949109CE01B201A70135
:100E800026E634E00E949109CE01B301A70126E6CF
:100E900034E00E9491090230110504F1CE01B6013F
:100EA000A4012AE534E00E949109CE01B601A50112
:100EB0002AE534E00E949109B20162507040CE01EF
:100EC000A7012AE534E00E949109B3016E5F7F4FCC
:100ED000CE01A7012AE534E00E949109CE01B801B4
:100EE0000E942D040F5F1F4F0894411C511C089451
:100EF000610871080894811C911C0894A108B1082C
:100F00000630110509F0A4CFDF91CF911F910F9109
:100F1000FF90EF90DF90CF90BF90AF909F908F9019
:100F20007F906F905F904F9008952F923F924F92D5
:100F30005F926F927F928F929F92AF92BF92CF9269
:100F4000DF92EF92FF920F931F93DF93CF93CDB772
:100F5000DEB728970FB6F894DEBF0FBECDBF8C5614
:100F60009F4FFC01819191919A8389838080918028
:100F7000E659F040F887EF83CF0161E070E00E940E
:100F80002D0451E0652E712C29803A800894211C93
:100F9000311CF4013196FC83EB8349805A8008941C
:100FA00041085108C40101979E838D8391E0691621
:100FB0007104A9F58F819885B1014B815C812CE684
:100FC00034E00E9491098F819885B2014B815C8148
:100FD0002CE634E00E9491098F819885B2014D8101
:100FE0005E812CE634E00E9491098F819885B101E1
:100FF0004D815E812CE634E00E9491098F819885B5
:10100000B101A4012CE634E00E9491098F819885FA
:10101000B201A4012CE634E00E949109DDC0E2E0B7
:101020006E16710409F050C042E0A42EB12CC980A4
:10103000DA80CA0CDB1C8501080D191D8F8198858B
:10104000B601A8012CE634E00E949109E980FA80FB
:10105000EA18FB088F819885B701A8012CE634E0D7
:101060000E94910984010A191B098F819885B70193
:10107000A8012CE634E00E9491098F819885B60181
:10108000A8012CE634E00E9491098F819885B60171
:10109000A4012CE634E00E9491098F819885B70164
:1010A000A4012CE634E00E9491098F81988562E0CA
:1010B00070E00E942D040894A11CB11CF4E0AF164E
:1010C000B10409F0B4CF88C083E06816710409F058
:1010D00083C08F819885B1014B815C812AE534E022
:1010E0000E9491098F819885B2014B815C812AE52C
:1010F00034E00E9491098F819885B2014D815E8113
:101100002AE534E00E9491098F819885B1014D81D3
:101110005E812AE534E00E9491098F819885B101B2
:10112000A4012AE534E00E9491098F819885B201DB
:10113000A4012AE534E00E94910932E0A32EB12CEB
:10114000C980DA80CA0CDB1C8501080D191D8F814E
:101150009885B601A8012AE534E00E949109E9804A
:10116000FA80EA18FB088F819885B701A8012AE563
:1011700034E00E94910984010A191B098F81988526
:10118000B701A8012AE534E00E9491098F81988572
:10119000B601A8012AE534E00E9491098F81988563
:1011A000B601A4012AE534E00E9491098F81988557
:1011B000B701A4012AE534E00E9491098F81988546
:1011C00063E070E00E942D040894A11CB11C94E01F
:1011D000A916B10409F0B4CF8F819885B3010E949C
:1011E0002D040894611C711CE4E06E16710409F072
:1011F000DDCE28960FB6F894DEBF0FBECDBFCF91DF
:10120000DF911F910F91FF90EF90DF90CF90BF90F3
:10121000AF909F908F907F906F905F904F903F9096
:101220002F900895AF92BF92CF92DF92EF92FF92EC
:101230000F931F936AE775E040E050E020E030E054
:1012400000E010E0EE24FF24F0E4CF2ED12CE0E407
:10125000AE2EB12C0E94C5141F910F91FF90EF90FC
:10126000DF90CF90BF90AF900895AF92BF92CF9292
:10127000DF92EF92FF920F931F938AEB94E06AE75D
:1012800075E040E050E020E030E000E410E0E0E60F
:10129000EE2EF12CB0E4CB2ED12CA0E4AA2EB12C52
:1012A0000E94C5141F910F91FF90EF90DF90CF9097
:1012B000BF90AF900895AF92BF92CF92DF92EF921E
:1012C000FF920F931F938C017B018830910504F5E9
:1012D00069307105ECF417FD1BC077FD19C084E07F
:1012E000000F111F8A95E1F7B4E0EE0CFF1CBA95D0
:1012F000E1F7CA016AE775E040E050E020E030E045
:10130000A0E1CA2ED12CF0E1AF2EB12C0E94C51461
:101310001F910F91FF90EF90DF90CF90BF90AF9013
:1013200008954F925F926F927F928F929F92AF92A9
:10133000BF92CF92DF92EF92FF920F931F93CF93C2
:10134000DF933C01EB014A012901683071050CF083
:101350007CC0493051050CF078C077FD76C057FD50
:1013600074C08B01B4E0000F111FBA95E1F77A0148
:10137000A4E0EE0CFF1CAA95E1F7C9016AE775E04D
:1013800040E050E020E030E0F0E1CF2ED12CE0E171
:10139000AE2EB12C0E94C514D301A057BF4F8D9122
:1013A0009C9111978C179D0709F04FC0F301EE56E1
:1013B000FF4F808191818815990509F046C0C0E0F2
:1013C000D0E07D018F01F80160817181F70180819A
:1013D0009181A2010E945B0962E370E080E090E0ED
:1013E0000E945717F80160817181F7018081918116
:1013F00040EC54E00E945B0962E370E080E090E022
:101400000E9457172196CC30D105E9F600E010E094
:1014100090E9E92EF12CE60CF71CE301CE56DF4FE4
:1014200068817981F70180819181A2010E945B0925
:1014300062E370E080E090E00E9457170F5F1F4F5B
:101440000430110569F70E94ED0DDF91CF911F91D6
:101450000F91FF90EF90DF90CF90BF90AF909F9053
:101460008F907F906F905F904F9008956F927F92D2
:101470008F929F92AF92BF92CF92DF92EF92FF92A4
:101480000F931F93CF93DF936B014A015C0184E0BC
:10149000AA0CBB1C8A95E1F704E0CC0CDD1C0A9574
:1014A000E1F7C0E0D0E010E1612E712C83010C1B4C
:1014B0001D0BBE016A0D7B1DAE014C0D5D1D8AE743
:1014C00095E0980174010E94E0202196C031D10579
:1014D00069F7DF91CF911F910F91FF90EF90DF900F
:1014E000CF90BF90AF909F908F907F906F90089516
:1014F0006F927F928F929F92AF92BF92CF92DF9224
:10150000EF92FF920F931F93CF93DF937C0100E044
:1015100010E0C80169E070E040E050E00E94360A47
:101520000F5F1F4F08301105A1F788249924C0E0F0
:10153000D0E0B6EA6B2E712C6E0C7F1C17C008949D
:10154000811C911C84E894E06AE775E040E050E07B
:1015500020E030E08E01A0E9EA2EF12CF0E1CF2E60
:10156000D12CE0E1AE2EB12C0E94C5146096F3019F
:10157000808191818816990614F3DF91CF911F9194
:101580000F91FF90EF90DF90CF90BF90AF909F9022
:101590008F907F906F900895CF92DF92EF92FF929D
:1015A0000F931F93CF93DF936C01EE24FF241DC094
:1015B000F80180819181892B29F4CE01B70142E79E
:1015C00054E004C0CE01B70148E754E00E945B0933
:1015D00021960E5F1F4FC830D10551F70894E11CCA
:1015E000F11CF9E0EF16F10459F0870124E0000F37
:1015F000111F2A95E1F70C0D1D1DC0E0D0E0D8CFDA
:10160000E601C856DF4F860102561F4F6881798177
:101610002A813B81FB0193E0EE0FFF1F9A95E1F7D2
:10162000E20FF31FEE0FFF1FEC0DFD1D8081918176
:10163000892B29F4C9014EE754E00E945B092296E8
:10164000C017D10719F7C6010E94780ADF91CF9120
:101650001F910F91FF90EF90DF90CF9008950F931F
:101660001F93CF93DF9300E010E00FC0CE01B801CD
:1016700048E754E00E945B092196C830D105B1F7D4
:101680000F5F1F4F0930110519F0C0E0D0E0EECF19
:1016900086E090E060E070E04AE854E00E945B0978
:1016A00085E090E060E070E04AE854E00E945B0969
:1016B00084E090E060E070E04AE854E00E945B095A
:1016C00087E090E063E070E040E954E00E945B094D
:1016D00087E090E064E070E040E954E00E945B093C
:1016E00087E090E065E070E040E954E00E945B092B
:1016F00081E090E068E070E046E954E00E945B0918
:1017000082E090E068E070E046E954E00E945B0906
:1017100083E090E068E070E046E954E00E945B09F5
:1017200080E090E064E070E04CE954E00E945B09E6
:1017300080E090E065E070E04CE954E00E945B09D5
:1017400080E090E066E070E04CE954E00E945B09C4
:101750000E94350984E090E065E070E040E050E0F0
:101760000E94360A85E090E065E070E040E050E0DD
:101770000E94360A61E070E080E090E025E030E011
:1017800040E050E00E94E01F9B01AC01EB018CEDBA
:1017900097E0B9014AE050E00E94F71EC130D10540
:1017A00019F482EA94E011C0C230D10519F488EA34
:1017B00094E00BC0C330D10519F48EEA94E005C063
:1017C000C430D10521F484EB94E00E941209CE01CB
:1017D000DF91CF911F910F9108958AE795E066E020
:1017E00047E028E00E94D1260895CF93DF9381E05F
:1017F0000E941218EC0180E00E94121822E0893148
:1018000092071CF021E030E015C08C5D91401CF483
:1018100023E030E00FC081E0C53ED8071CF422E091
:1018200030E008C0C252D2401CF420E030E002C0D8
:1018300024E030E0C901DF91CF910895CF93DF9389
:10184000EC010E94F50B029769F41C161D061CF0B2
:10185000C2E0D0E007C0CE01019763E070E00E94D3
:10186000903FEC010E94F50B049739F4CE010196EC
:1018700063E070E00E94903FEC012097F1F48AE76A
:1018800095E060EE7FEF0E940F238AE795E065E028
:1018900070E047E650E00E9403238AE795E062E0AB
:1018A0000E9409238AE795E064EC72E00E94AB1F76
:1018B0008AE795E06FEF7FEF20C0C130D105B9F521
:1018C0008AE795E06FEF7FEF0E940F238AE795E0AC
:1018D00065E070E047E650E00E9403238AE795E068
:1018E00062E00E9409238AE795E064EC72E00E94BE
:1018F000AB1F8AE795E060EE7FEF0E940F238AE737
:1019000095E065E070E046E750E00E9403238AE737
:1019100095E062E00E9409238AE795E069EC72E0B5
:101920000E94AB1F8AE795E06FEF7FEF3AC0C230AD
:10193000D10509F04BC08AE795E06FEF7FEF0E9479
:101940000F238AE795E065E070E047E650E00E94EB
:1019500003238AE795E062E00E9409238AE795E085
:1019600064EC72E00E94AB1F8AE795E06FEF7FEFB7
:101970000E940F238AE795E065E070E046E750E0BB
:101980000E9403238AE795E062E00E9409238AE728
:1019900095E069EC72E00E94AB1F8AE795E060EE8B
:1019A0007FEF0E940F238AE795E064E070E045E84E
:1019B00050E00E9403238AE795E062E00E94092339
:1019C0008AE795E06EEC72E00E94AB1F68EC70E075
:1019D00080E090E00E945717CE01DF91CF910895EB
:1019E000AF92BF92CF92DF92EF92FF920F931F932D
:1019F000CF93DF93EC018AE795E062E00E94A32693
:101A000082ED94E06AE775E040E050E020E030E0ED
:101A100000E010E0EE24FF24F0E8CF2ED12CE0EA25
:101A2000AE2EB12C0E94C5148AE795E06FEF7FEFD0
:101A30000E940F238AE795E06AE070E040E050E002
:101A40000E9403238AE795E062E00E9409238AE767
:101A500095E065ED72E00E94AB1F8AE795E06FE0CC
:101A600070E04FE050E00E9403238AE795E06FEDBD
:101A700072E00E94AB1F8AE795E06FEF7FEF0E9454
:101A80000F238AE795E065E070E047E650E00E94AA
:101A900003238AE795E062E00E9409238AE795E044
:101AA00064EC72E00E94AB1F8AE795E065E070E0AD
:101AB00046E750E00E9403238AE795E062E00E9437
:101AC00009238AE795E069EC72E00E94AB1F8AE780
:101AD00095E064E070E045E850E00E9403238AE767
:101AE00095E062E00E9409238AE795E06EEC72E0DF
:101AF0000E94AB1F8AE795E061E00E9409238AE714
:101B000095E06FE070E046E950E00E9403238AE729
:101B100095E068EE72E00E940A1F01E010E004C048
:101B2000C8010E941E0C8C0189E00E942C19892B8F
:101B3000B9F7C256DF4F19830883CE59D04001153B
:101B4000110599F4C056DF4F80E090E0A0E2B1E4C7
:101B500088839983AA83BB83269683E090E0998348
:101B60008883FE0188EC90E02BC00130110599F4C8
:101B7000C056DF4F80E090E0A0E4B0E48883998312
:101B8000AA83BB83269683E090E099838883FE0135
:101B900084E690E015C002301105A1F4C056DF4F75
:101BA00080E090E0A0E0B0E488839983AA83BB83BF
:101BB000269683E090E099838883FE018AE090E096
:101BC00092938293DF91CF911F910F91FF90EF90AD
:101BD000DF90CF90BF90AF9008950F931F930AE7C7
:101BE00015E0C80160E078EF0E94FD24C80160E0C4
:101BF00070E00E940F23C8016FE070E04CE350E0FA
:101C00000E940323C80162E00E940923C80169EF12
:101C100072E00E94AB1FC80161E00E940923C80165
:101C200069E170E04DE450E00E940323C80162E0E6
:101C300073E00E940A1F60E47BE48CE490E00E9461
:101C400057171F910F9108958F929F92AF92BF9255
:101C5000CF92DF92EF92FF920F931F93CF93DF9378
:101C60008C01BC0160577F4FAC014C565F4FFB01AC
:101C700020813181FA01808191812817390709F08B
:101C800080C0D801AE56BF4FF801EA56FF4F2D91E4
:101C90003C911197808191812817390709F071C013
:101CA000C0E0D0E04A015F016B017D01F501608178
:101CB0007181F4018081918142E055E00E945B09CD
:101CC00062E370E080E090E00E945717F7016081C6
:101CD0007181F601808191814CEC54E00E945B0996
:101CE00062E370E080E090E00E9457172196CC30CC
:101CF000D105E1F6C0E0D0E0A0E9EA2EF12CE00E3B
:101D0000F11E0E561F4FF80160817181F70180812D
:101D100091814CEC54E00E945B0962E370E080E04A
:101D200090E00E9457172196C430D10561F78AE7E9
:101D300095E060E070E00E94FD248AE795E065E0B0
:101D400070E047E650E00E9403238AE795E062E0F6
:101D50000E9409238AE795E060E173E00E94AB1FCF
:101D60008AE795E061E00E9409238AE795E068E14F
:101D700073E00E94AB1F60E47BE48CE490E00E947F
:101D80005717DF91CF911F910F91FF90EF90DF9048
:101D9000CF90BF90AF909F908F900895EF92FF9259
:101DA0000F931F93CF93DF937C0161E070E080E09D
:101DB00090E025E030E040E050E00E94E01F63301A
:101DC0007105E1F4E701CC56DF4F888199810097D6
:101DD00009F476C001979983888387010A561F4FBB
:101DE000F8016081718148E055E00E945B098881BB
:101DF0009981F8016081718101965EC06130710541
:101E0000E9F4E701CC56DF4F88819981873091054D
:101E100009F456C001969983888387010A561F4F9B
:101E2000F801608171814EE055E00E945B09888174
:101E30009981F8016081718101973EC0623071051E
:101E4000D9F4E701CA56DF4F6881798161157105C0
:101E5000B9F1615070407983688387010C561F4F38
:101E6000F8018081918144E155E00E945B0968811D
:101E700079816F5F7F4F1DC06430710509F5E701FF
:101E8000CA56DF4F6881798168307105C9F06F5F8C
:101E90007F4F7983688387010C561F4FF80180813B
:101EA000918142E055E00E945B096881798161502F
:101EB0007040F801808191814EED54E00E945B09F1
:101EC00084EA90E0E80EF91EF701608171818827AD
:101ED00077FD8095982F0E945717DF91CF911F9122
:101EE0000F91FF90EF900895AF92BF92CF92DF9243
:101EF000EF92FF920F931F93CF93DF93EC0161E07A
:101F000070E080E090E025E030E040E050E00E94AA
:101F1000E01FFE01E655FF4F20813181C855DF4F9C
:101F200039832883C85AD04071836083613071053A
:101F3000A9F48AEE94E06AE775E040E050E020E022
:101F400030E000E710E0A0E9EA2EF12CF0E1CF2E1E
:101F5000D12CE0E1AE2EB12C0E94C514C655DF4F46
:101F600088819981CA5AD0400297A9F480EF94E001
:101F70006AE775E040E050E020E030E000E710E084
:101F8000B0E9EB2EF12CA0E1CA2ED12CF0E1AF2E5E
:101F9000B12C0E94C514C655DF4F88819981CA5A59
:101FA000D0400397A9F486EF94E06AE775E040E03B
:101FB00050E020E030E000E710E0E0E9EE2EF12C08
:101FC000B0E1CB2ED12CA0E1AA2EB12C0E94C514D9
:101FD000C655DF4F88819981CA5AD0400497A9F429
:101FE0008CEF94E06AE775E040E050E020E030E0FC
:101FF00000E710E0F0E9EF2EF12CE0E1CE2ED12C3D
:10200000B0E1AB2EB12C0E94C514C855DF4F8881BA
:102010009981C85AD040019719F4CE010E94F80660
:10202000C855DF4F88819981C85AD040029719F46A
:10203000CE010E944F04C855DF4F88819981C85A4C
:10204000D040039719F4CE010E949507C855DF4F81
:1020500088819981C85AD040049719F4CE010E9412
:102060000905DF91CF911F910F91FF90EF90DF90C5
:10207000CF90BF90AF900895CF92DF92EF92FF92F2
:102080000F931F936B017C010AE715E0C80160E420
:1020900070E040E550E00E940323C80161E00E9427
:1020A0000923C8016FEF7FEF0E940F23C801B7011A
:1020B000A60122E030E00E94A81F65E070E080E009
:1020C00090E00E945717C80160E470E040E550E0DE
:1020D0000E940323C80160E070E00E940F23C80142
:1020E000B701A60122E030E00E94A81F1F910F91C6
:1020F000FF90EF90DF90CF9008958F929F92AF92D4
:10210000BF92CF92DF92EF92FF920F931F93CF93E4
:10211000DF93EC010E942F0B4C0168EC70E080E033
:1021200090E00E945717C056DF4FE880F9800A817F
:102130001B81C05AD040B6EAAB2EB12CAC0EBD1EEE
:1021400083C00E94F50B6C018816990631F5C056C4
:10215000DF4FE880F9800A811B81C801B7012FE8B1
:1021600032EC45EF5EE30E94F63E18166CF4C801AF
:10217000B7012FE832EC45EF5EE30E94423D6883F1
:1021800079838A839B836DC08DEC9CECACE4BDE3CA
:1021900088839983AA83BB8364C0C801B7012AE0FE
:1021A00037ED43EA5CE30E94A73D882324F5F5015F
:1021B00080819181019791838083019669E070E02D
:1021C00040E050E00E94360AF50180819181892B20
:1021D00009F445C064EF71E080E090E00E94571779
:1021E0000F2EF0E0EF2EF0E0FF2EF0E00F2FF0E4E6
:1021F0001F2FF02D1FC0CD2829F4C801B7010E9460
:102200003C1018C0F50180819181019791838083F2
:10221000019669E070E040E050E00E94360AF50166
:1022200080819181892BD9F064EF71E080E090E0AA
:102230000E945717C801B7012AE037ED43E25CE37B
:102240000E94423D7B018C01C801B70120E030E0D3
:1022500040E050E00E94F63E18160CF472CF0E9447
:10226000ED0DDF91CF911F910F91FF90EF90DF90D7
:10227000CF90BF90AF909F908F900895AF92BF92F4
:10228000CF92DF92EF92FF920F931F93CF93DF9342
:10229000EC015B018A0142E9C42ED12CC00ED11E93
:1022A000D601ED91FC9130E9E32EF12CE00EF11E08
:1022B000D7018D919C9123E0EE0FFF1F2A95E1F746
:1022C000E80FF91FEE0FFF1FE00FF11F80819181D2
:1022D0000197F1F081E090E09183808364E670E003
:1022E00080E090E00E94BE1F6F307105810591056E
:1022F0007CF4C8010E947D10C8010E94CC0AF6013E
:1023000060817181D7018D919C914CEC54E07AC031
:10231000C330D105D9F4E801C057DF4F88819981D6
:10232000009709F471C00197998388830E561F4F57
:10233000F8016081718148ED54E00E945B09888159
:102340009981D8016D917C9101965AC0C130D10517
:10235000E1F4E801C057DF4F88819981873091050A
:1023600009F452C00196998388830E561F4FF801D5
:102370006081718146EC54E00E945B0988819981FB
:10238000D8016D917C9101973BC0C230D105D1F449
:10239000E801CE56DF4F6881798161157105A1F1A1
:1023A000615070407983688300571F4FF801808126
:1023B000918144EE54E00E945B09688179816F5FEE
:1023C0007F4F1BC0249701F5E801CE56DF4F68818F
:1023D000798168307105C1F06F5F7F4F79836883C1
:1023E00000571F4FF801808191814CEC54E00E940E
:1023F0005B096881798161507040D8018D919C9111
:102400004EED54E00E945B09B501882777FD809569
:10241000982F0E945717DF91CF911F910F91FF9036
:10242000EF90DF90CF90BF90AF900895CF92DF9262
:10243000EF92FF920F931F93CF93DF93EC018B01E9
:102440007A0150E9C52ED12CC80ED91E17C08017AD
:1024500091073CF481E090E06AEF70E0AE010E94E9
:102460003E11F60180819181081719073CF483E041
:1024700090E06AEF70E0AE010E943E11F6018081AB
:1024800091818017910719F718C08E159F053CF4AC
:1024900084E090E06AEF70E0AE010E943E11F80126
:1024A00080819181E816F9065CF482E090E06AEFA1
:1024B00070E0AE010E943E1103C08E010E561F4F08
:1024C000F801808191818E159F05F9F6C057DF4F85
:1024D00088819981B70146EC54E00E945B0968EC61
:1024E00070E080E090E00E945717DF91CF911F913C
:1024F0000F91FF90EF90DF90CF9008952F923F9231
:102500004F925F926F927F928F929F92AF92BF9203
:10251000CF92DF92EF92FF920F931F93DF93CF93AF
:1025200000D000D0CDB7DEB76C0100E010E086E04F
:1025300090E0B80142E055E00E945B090150104074
:1025400086E090E0B80142E055E00E945B0901504E
:10255000104086E090E0B8014EED54E00E945B0927
:1025600064E170E080E090E00E9457170D5F1F4F1C
:1025700006301105E1F686E090E064E070E04EED93
:1025800054E00E945B0986E090E065E070E048E07E
:1025900055E00E945B0987E090E065E070E04AEE5C
:1025A00054E00E945B0905E010E021E0A22EB12C6E
:1025B000C60180579F4F9C838B8392E9292E312C33
:1025C0002C0C3D1C41C0C701B4014AEE54E00E94EE
:1025D0005B09C701B3014AEE54E00E945B0964E065
:1025E00070E0ED81FE816E1B7F0BC8014AEE54E066
:1025F0000E945B098D819E8104969E838D83C80114
:102600006D817E814AEE54E00E945B09F101608198
:102610007181EB81FC818081918146EC54E00E94C4
:102620005B098D819E8103979E838D830894E11CB5
:10263000F11C481659063CF684010894A11CB11CF3
:102640009FEF0F3F1907E1F02501440C551C78015D
:102650001E821D824801089481089108BBE06B2E00
:10266000712C601A710AAFCF0197F80191838083B2
:10267000019669E070E040E050E00E94360A03C035
:1026800086010A551F4FF8018081918181309105A3
:1026900059F787E090E065E070E04EED54E00E946D
:1026A0005B0905E010E0A1E0AA2EB12CC60180571D
:1026B0009F4F9A838983F2E92F2E312C2C0C3D1CDD
:1026C00046C0C701B4014EED54E00E945B09C7014A
:1026D000B3014EED54E00E945B0964E070E0ED81CF
:1026E000FE816E1B7F0BC8014EED54E00E945B091A
:1026F0008D819E8104969E838D83C8016D817E812C
:102700004EED54E00E945B09F10160817181E98125
:10271000FA818081918146EC54E00E945B098D81B1
:102720009E8103979E838D830894E11CF11C4816BB
:1027300059063CF684010894A11CB11C9FEF0F3F81
:10274000190729F420E030E041E050E01BC02501EA
:10275000440C551C78011E821D8248010894810892
:1027600091087BE0672E712C601A710AAACF419301
:102770005193019688309105D1F72F5F3F4F293053
:10278000310559F0F90164E0EE0FFF1F6A95E1F79A
:10279000EC0DFD1D80E090E0EACF86E090E065E082
:1027A00070E048E055E00E945B09E4E9F0E0CE0EFD
:1027B000DF1E86E090E0F601819391936F0185E042
:1027C00090E0918380838AE69FEFC80ED91EC601F0
:1027D00061E070E045E050E00E94161226960FB6C8
:1027E000F894DEBF0FBECDBFCF91DF911F910F9147
:1027F000FF90EF90DF90CF90BF90AF909F908F9021
:102800007F906F905F904F903F902F900895EF9240
:10281000FF920F931F938C017B010E94F50BB8016F
:10282000A7010E943E111F910F91FF90EF90089514
:102830000F931F93CF93DF93EC018AE795E06FEF3F
:102840007FEF0E940F238AE795E068E270E046E997
:1028500050E00E9403238AE795E061E00E9409238B
:102860008AE795E06BE273E00E94AB1F0E941D16A1
:102870000E94FE1F8E010C551F4FCE010E94CE0EEE
:10288000CE010E94740FF80180819181BE010E94E7
:102890000714CE010E94240EF0CFAF92BF92CF92C8
:1028A000DF92EF92FF920F931F93CF93DF93EC0190
:1028B0000E94CC0AFE01E057FF4FCE56DF4F6881E1
:1028C0007981C259D040808191814CEC54E00E94C2
:1028D0005B0918E9A12EB12CAC0EBD1EBAE9CB2EB6
:1028E000D12CCC0EDD1EACE9EA2EF12CEC0EFD1E37
:1028F0008E0102561F4F0E94F50B6AEF70E0AE0189
:102900000E943E11D5018D919C91F3E0880F991F93
:10291000FA95E1F7F601A081B1818A0F9B1F880F1C
:10292000991F8C0F9D1FFC0180819181892B19F3C8
:1029300073E0AA0FBB1F7A95E1F7F701208131817F
:10294000A20FB31FAA0FBB1FAC0FBD1F8D919C918F
:10295000892B89F253E0220F331F5A95E1F7D801F2
:102960008D919C91280F391F220F331F2C0F3D1F73
:10297000F90180819181892B09F4BDCFCE010E949C
:102980007E12CE010E941814B6CF2F923F924F9222
:102990005F926F927F928F929F92AF92BF92CF92EF
:1029A000DF92EF92FF920F931F93DF93CF93CDB7F8
:1029B000DEB7C654D0400FB6F894DEBF0FBECDBF11
:1029C00098AF8FAB7AAF69AF5CAF4BAF4901F02ED8
:1029D0001601BEAEADAE8DB79EB721969FAF8EAF3E
:1029E0002197CE0101960E94F226AFA9B8AD4D9174
:1029F0005C91CE014C9668E578E021E00E94722956
:102A00008E8D9F8D9C838B8388A199A1AAA1BBA148
:102A10008D839E83AF83B8878CA19DA1AEA1BFA1FA
:102A200089879A87AB87BC87DE011D96FE01B89621
:102A30008DE001900D928150E1F78DA99EA99B8FA9
:102A40008A8F2E010894411C511CC2010E9442270A
:102A5000182FCE014C960E9405271123A1F48CED6E
:102A600097E061ED73E00E940A1FEFA9F8AD608165
:102A700071818CED97E00E940A1F8CED97E067E270
:102A80000E94181EA9C02F2D2150220D0E2D01507D
:102A9000FDAD0F0F89AD9AAD6F2D4E2D0E94A7236E
:102AA0003101660C771C5401CC24DD248824992440
:102AB000C201542C492EABADBCADCD01A0E0B0E0BD
:102AC00027968CAF9DAFAEAFBFAF279778C0FDB64E
:102AD000EEB62296FFAE22972396EFAE23978DB7E0
:102AE0009EB7861997090FB6F8949EBF0FBE8DBF8B
:102AF0000DB71EB70F5F1F4FAFA9B8AD12962D913E
:102B00003C91139740E050E0C601B5010E945D3F43
:102B1000AB01BC0127968CAD9DADAEADBFAD279787
:102B2000480F591F6A1F7B1F440F551F661F771FD1
:102B3000852D942D0E946127852D942DB801A30128
:102B40000E9473278615970519F4EE24FF2420C0F0
:102B50008CED97E062EE73E00E94AB1F852D942D03
:102B60000E944F278F2D9E2D9C010FB6F8943EBFDB
:102B70000FBE2DBF31C0D8017C9111966C9189ADEB
:102B80009AAD0E94EB230894E11CF11C0E5F1F4FCD
:102B9000E214F30480F322968FAD229723969FAD23
:102BA00023979C010FB6F8943EBF0FBE2DBF08942B
:102BB000811C911C0894A11CB11CC11CD11CEDAD41
:102BC000FEAD8E169F0608F482CF852D942D0E94AF
:102BD0004F27852D942D02C0CE0101960E94052716
:102BE00021968EAD9FAD21970FB6F8949EBF0FBE74
:102BF0008DBFCA5BDF4F0FB6F894DEBF0FBECDBFEF
:102C0000CF91DF911F910F91FF90EF90DF90CF90C8
:102C1000BF90AF909F908F907F906F905F904F90FC
:102C20003F902F90089508951092AB051092AC0537
:102C30001092AF051092B10508950F931F93CF9393
:102C4000DF93C0E0D0E000E010E0CC0FDD1F87E0B4
:102C50000E941218C827D92761E070E080E090E058
:102C60000E9457170F5F1F4F0031110571F7CE01FA
:102C7000DF91CF911F910F910895EF92FF920F93E3
:102C80001F93DF93CF93CDB7DEB7CA5AD0400FB6AC
:102C9000F894DEBF0FBECDBF8CED97E040E855E263
:102CA00060E070E00E94851B89E060E00E944618A9
:102CB00089E061E00E94F91820E030E0AE014F5F4A
:102CC0005F4F0BC011921192019688309105D1F798
:102CD0002F5F3F4F2930310559F0F90164E0EE0FC5
:102CE000FF1F6A95E1F7E40FF51F80E090E0EACF5F
:102CF0000E941D160E94FE1F8E0107561F4F9FE95E
:102D0000E92EF12CEC0EFD1E67E070E080E090E013
:102D10000E94BE1FF8017183608367E070E080E06D
:102D200090E00E94BE1FF801738362830E5F1F4F05
:102D30000E151F0549F784E090E0FE01EF56FF4FA6
:102D40009183808388E090E0FE01ED56FF4F9183F0
:102D5000808381E090E0FE01E757FF4F91838083FD
:102D60008CED97E066EF73E00E940A1F88E598E01B
:102D700065E04FEF2FEF0FEF0E94A42A882329F47C
:102D80008CED97E06EE074E01CC08CED97E066E19E
:102D900074E00E94AB1F8CED97E06AE174E00E9442
:102DA0000A1F86EA95E061E045E02FEF0FEFEE2481
:102DB000EA940E94922D882339F48CED97E064E325
:102DC00074E00E94AB1F0FC08CED97E06BE374E0E2
:102DD0000E94AB1F8E010F5F1F4FC8010E94F00CB5
:102DE000C8010E944D14C655DF4F0FB6F894DEBFE0
:102DF0000FBECDBFCF91DF911F910F91FF90EF904C
:102E000008951F920F920FB60F9211242F933F93A4
:102E10008F939F93AF93BF938091B7059091B8051F
:102E2000A091B905B091BA053091BB050196A11DDD
:102E3000B11D232F2D5F2D3720F02D570196A11D99
:102E4000B11D2093BB058093B7059093B805A0935F
:102E5000B905B093BA058091B3059091B405A091DE
:102E6000B505B091B6050196A11DB11D8093B305BE
:102E70009093B405A093B505B093B605BF91AF91FB
:102E80009F918F913F912F910F900FBE0F901F90A8
:102E900018958FB7F8942091B7053091B8054091F7
:102EA000B9055091BA058FBFB901CA0108959B01B8
:102EB000AC017FB7F8948091B3059091B405A091CF
:102EC000B505B091B60566B5A89B05C06F3F19F072
:102ED0000196A11DB11D7FBFBA2FA92F982F88275A
:102EE000860F911DA11DB11D62E0880F991FAA1FB9
:102EF000BB1F6A95D1F7BC012DC0FFB7F894809134
:102F0000B3059091B405A091B505B091B605E6B5AD
:102F1000A89B05C0EF3F19F00196A11DB11DFFBF91
:102F2000BA2FA92F982F88278E0F911DA11DB11D93
:102F3000E2E0880F991FAA1FBB1FEA95D1F7861BF5
:102F4000970B885E9340C8F221503040404050407B
:102F500068517C4F211531054105510571F60895E1
:102F6000789484B5826084BD84B5816084BD85B564
:102F7000826085BD85B5816085BDEEE6F0E080812B
:102F800081608083E1E8F0E010828081826080834C
:102F9000808181608083E0E8F0E0808181608083CF
:102FA000E1EBF0E0808184608083E0EBF0E0808101
:102FB00081608083E1E9F0E08081826080838081AC
:102FC00081608083E0E9F0E0808181608083E1EAD4
:102FD000F0E0808182608083808181608083E0EA8C
:102FE000F0E0808181608083E1E2F1E080818260B5
:102FF0008083808181608083E0E2F1E08081816074
:103000008083EAE7F0E08081846080838081826051
:10301000808380818160808380818068808310923A
:10302000C1000895382F863308F0365320917B0075
:10303000832F86958695869590E08170907043E009
:10304000880F991F4A95E1F7277F282B20937B0053
:10305000377080911A058295880F880F807C832BAA
:1030600080937C0080917A00806480937A008091C4
:103070007A0086FDFCCF2091780040917900942F52
:1030800080E030E0282B392BC9010895CF93DF93DE
:10309000482F50E0CA0188589E4FFC0134914E5C85
:1030A0005E4FFA018491882369F190E0880F991F9F
:1030B000FC01EC51FF4FA591B491FC01E250FF4F90
:1030C000C591D491662351F42FB7F8948C91932F26
:1030D000909589238C93888189230BC0623061F499
:1030E0002FB7F8948C91932F909589238C93888196
:1030F000832B88832FBF06C09FB7F8948C91832BB6
:103100008C939FBFDF91CF910895893009F449C016
:103110008A30A0F4843051F1853040F4823079F166
:10312000833000F5813009F063C026C0873079F123
:10313000883098F5863009F05BC025C08D3009F4E1
:1031400042C08E3028F48B30B1F18C30C0F52DC0E8
:10315000803109F442C0813109F445C08F3009F053
:1031600047C037C0809180008F7703C08091800076
:103170008F7D80938000089584B58F7702C084B5D9
:103180008F7D84BD08958091B0008F7703C08091BA
:10319000B0008F7D8093B0000895809190008F776C
:1031A00007C0809190008F7D03C080919000877F41
:1031B0008093900008958091A0008F7707C0809140
:1031C000A0008F7D03C08091A000877F8093A00026
:1031D0000895809120018F7703C0809120018F7D19
:1031E00080932001089580912001877F80932001A2
:1031F0000895FF920F931F93F62E482F50E0CA01B7
:1032000082549E4FFC012491CA0188589E4FFC01B4
:1032100014914E5C5E4FFA0104910023C9F0222301
:1032200019F0822F0E948518E02FF0E0EE0FFF1FAB
:10323000E250FF4FA591B4919FB7F894FF2021F47D
:103240008C911095812302C08C91812B8C939FBF10
:103250001F910F91FF9008950F931F93482F50E0F7
:10326000CA0182549E4FFC012491CA0188589E4F86
:10327000FC0104914E5C5E4FFA011491112319F484
:1032800020E030E015C0222319F0822F0E9485181B
:10329000812F90E0880F991F885E9E4FFC01A591B9
:1032A000B4918C9120E030E0802311F021E030E0F7
:1032B000C9011F910F91089508951F920F920FB6A3
:1032C0000F920BB60F9211242F933F934F938F932E
:1032D0009F93EF93FF934091C6002091FC0530919E
:1032E000FD052F5F3F4F2F7330708091FE05909149
:1032F000FF052817390759F0E091FC05F091FD050D
:10330000E454FA4F40833093FD052093FC05FF9170
:10331000EF919F918F914F913F912F910F900BBE05
:103320000F900FBE0F901F90189508951F920F9247
:103330000FB60F920BB60F9211242F933F934F931A
:103340008F939F93EF93FF934091CE00209184063B
:10335000309185062F5F3F4F2F7330708091860626
:10336000909187062817390759F0E0918406F0916B
:103370008506EC5BF94F40833093850620938406E5
:10338000FF91EF919F918F914F913F912F910F90CE
:103390000BBE0F900FBE0F901F90189508951F92AF
:1033A0000F920FB60F920BB60F9211242F933F93EB
:1033B0004F938F939F93EF93FF934091D60020916B
:1033C0000C0730910D072F5F3F4F2F7330708091A6
:1033D0000E0790910F072817390759F0E0910C0755
:1033E000F0910D07E453F94F408330930D0720937C
:1033F0000C07FF91EF919F918F914F913F912F91EA
:103400000F900BBE0F900FBE0F901F901895089550
:103410001F920F920FB60F920BB60F9211242F939B
:103420003F934F938F939F93EF93FF934091360178
:1034300020919407309195072F5F3F4F2F73307085
:1034400080919607909197072817390759F0E091D6
:103450009407F0919507EC5AF84F40833093950705
:1034600020939407FF91EF919F918F914F913F91FE
:103470002F910F900BBE0F900FBE0F901F901895BD
:10348000E091E807F091E907E05CFF4F81919191AD
:1034900020813181821B930B8F739070892B11F0E7
:1034A0000E945C19E0910708F0910808E05CFF4F6A
:1034B0008191919120813181821B930B8F73907048
:1034C000892B11F00E949519E0912608F0912708A8
:1034D000E05CFF4F8191919120813181821B930BA0
:1034E0008F739070892B11F00E94CE19E0914508DE
:1034F000F0914608E05CFF4F8191919120813181EC
:10350000821B930B8F739070892B11F00E94071A06
:1035100008951F920F920FB60F920BB60F921124BF
:103520002F933F938F939F93EF93FF9320914006A8
:103530003091410680914206909143062817390741
:1035400031F48091C1008F7D8093C10014C0E0915F
:103550004206F0914306E050FA4F208180914206E6
:103560009091430601968F739070909343068093D9
:1035700042062093C600FF91EF919F918F913F915A
:103580002F910F900BBE0F900FBE0F901F901895AC
:103590001F920F920FB60F920BB60F9211242F931A
:1035A0003F938F939F93EF93FF932091C8063091A1
:1035B000C9068091CA069091CB062817390731F4C5
:1035C0008091C9008F7D8093C90014C0E091CA0624
:1035D000F091CB06E857F94F20818091CA0690916F
:1035E000CB0601968F7390709093CB068093CA069A
:1035F0002093CE00FF91EF919F918F913F912F915A
:103600000F900BBE0F900FBE0F901F9018951F923A
:103610000F920FB60F920BB60F9211242F933F9378
:103620008F939F93EF93FF93209150073091510711
:1036300080915207909153072817390731F48091F0
:10364000D1008F7D8093D10014C0E0915207F0919A
:103650005307E05FF84F2081809152079091530704
:1036600001968F7390709093530780935207209325
:10367000D600FF91EF919F918F913F912F910F90E5
:103680000BBE0F900FBE0F901F9018951F920F92B8
:103690000FB60F920BB60F9211242F933F938F9377
:1036A0009F93EF93FF932091D8073091D907809192
:1036B000DA079091DB072817390731F4809131013F
:1036C0008F7D8093310114C0E091DA07F091DB0720
:1036D000E856F84F20818091DA079091DB07019638
:1036E0008F7390709093DB078093DA0720933601F5
:1036F000FF91EF919F918F913F912F910F900BBE72
:103700000F900FBE0F901F901895AF92BF92DF924F
:10371000EF92FF920F931F93CF93DF93EC017A0107
:103720008B01DD24403081EE580780E0680780E09F
:10373000780711F0DD24D39491E0A92EB12CEC8907
:10374000FD89DD2069F0C5010E8C02C0880F991F2C
:103750000A94E2F7808360E079E08DE390E005C0B1
:10376000108260E874E88EE190E0A80197010E9461
:10377000A33F2150304040405040569547953795E3
:10378000279580E12030380720F0DD2011F0DD247E
:10379000D6CFE889F9893083EA89FB892083EE89CD
:1037A000FF89408121E030E0C9010A8C02C0880F06
:1037B000991F0A94E2F7482B4083EE89FF894081E4
:1037C000C9010B8C02C0880F991F0A94E2F7482B9D
:1037D0004083EE89FF894081C9010C8C02C0880FAB
:1037E000991F0A94E2F7482B4083EE89FF89808174
:1037F0000D8C02C0220F331F0A94E2F72095282374
:103800002083DF91CF911F910F91FF90EF90DF9078
:10381000BF90AF900895DC011C96ED91FC911D972F
:10382000E05CFF4F2191319180819181281B390B00
:103830002F733070C9010895DC011C96ED91FC9145
:103840001D97E05CFF4F20813181E054F040DF01A3
:10385000AE5BBF4F8D919C9111972817390719F4D2
:103860002FEF3FEF07C08D919C91E80FF91F8081EA
:10387000282F30E0C9010895DC011C96ED91FC91E0
:103880001D97E05CFF4F20813181E054F040DF0163
:10389000AE5BBF4F8D919C9111972817390719F492
:1038A0002FEF3FEF10C08D919C911197E80FF91FFA
:1038B00020818D919C91119701968F739070119634
:1038C0009C938E9330E0C9010895FC01868597850D
:1038D000DC01A05CBF4FFC01EE5BFF4F2D913C91E2
:1038E00011978081918128173907C1F70895CF93E7
:1038F000DF93EC01EE85FF85E05CFF4F2081318195
:10390000E054F0402F5F3F4F2F733070DF01AE5B0C
:10391000BF4F8D919C91119728173907D1F3E05C27
:10392000FF4F80819181E054F040E80FF91F6083E0
:10393000EE85FF85E05CFF4F31832083EE89FF89B0
:10394000208181E090E00D8C02C0880F991F0A94BD
:10395000E2F7282B208381E090E0DF91CF9108955A
:103960001F931092DF071092DE0728EE33E040E04D
:1039700050E02093E0073093E1074093E207509333
:10398000E30763E275E07093DD076093DC078CEB7F
:1039900095E09093E9078093E80780E096E09093A4
:1039A000EB078093EA0785EC90E09093ED07809316
:1039B000EC0784EC90E09093EF078093EE0780ECA7
:1039C00090E09093F1078093F00781EC90E0909362
:1039D000F3078093F20786EC90E09093F5078093CD
:1039E000F40714E01093F607B3E0B093F707A7E0ED
:1039F000A093F807F5E0F093F907E1E0E093FA0708
:103A00001092FE071092FD072093FF0730930008E5
:103A100040930108509302087093FC076093FB07E2
:103A200084E496E0909308088093070888E896E07D
:103A300090930A08809309088DEC90E090930C080D
:103A400080930B088CEC90E090930E0880930D0807
:103A500088EC90E09093100880930F0889EC90E038
:103A600090931208809311088EEC90E090931408C4
:103A70008093130810931508B0931608A0931708A5
:103A8000F0931808E093190810921D0810921C0872
:103A900020931E0830931F0840932008509321085C
:103AA00070931B0860931A088CEC96E0909327089B
:103AB0008093260880E197E0909329088093280856
:103AC00085ED90E090932B0880932A0884ED90E098
:103AD00090932D0880932C0880ED90E090932F0810
:103AE00080932E0881ED90E0909331088093300808
:103AF00086ED90E090933308809332081093340859
:103B0000B0933508A0933608F0933708E09338084F
:103B100010923C0810923B0820933D0830933E08D9
:103B200040933F085093400870933A0860933908D7
:103B300084E597E0909346088093450888E997E0EC
:103B4000909348088093470885E391E090934A0852
:103B50008093490884E391E090934C0880934B084C
:103B600080E391E090934E0880934D0881E391E0CB
:103B70009093500880934F0886E391E09093520809
:103B80008093510810935308B0935408A09355089C
:103B9000F0935608E09357081F910895CF92DF9253
:103BA000EF92FF920F931F93CF93DF937C016B01F2
:103BB0008A01C0E0D0E00FC0D6016D916D01D70140
:103BC000ED91FC910190F081E02DC7011995C80F8E
:103BD000D91F015010400115110571F7CE01DF9179
:103BE000CF911F910F91FF90EF90DF90CF900895AC
:103BF000EF92FF920F931F938C01DC01ED91FC91EA
:103C00000190F081E02D6DE019957C01D801ED91D6
:103C1000FC910190F081E02DC8016AE019959C01AA
:103C20002E0D3F1DC9011F910F91FF90EF90089538
:103C3000EF92FF920F931F937C01DC01ED91FC91B9
:103C40000190F081E02D19958C01C7010E94F81DAB
:103C5000080F191FC8011F910F91FF90EF90089551
:103C6000CF93DF93DB010D900020E9F71197A61B9E
:103C7000B70BEC01E881F9810280F381E02DAD0101
:103C80001995DF91CF9108954F925F927F928F9215
:103C90009F92AF92BF92CF92DF92EF92FF920F93DB
:103CA0001F93DF93CF93CDB7DEB7A1970FB6F894EC
:103CB000DEBF0FBECDBF2C01742ECB01223008F425
:103CC0002AE019A231E2C32ED12CCC0EDD1E822EA9
:103CD0009924AA24BB24672D752FA50194010E9465
:103CE000A33F79018A01C801B701A50194010E948F
:103CF0005D3F472D461B0894C108D1084A3014F493
:103D0000405D01C0495CF6014083E114F104010506
:103D1000110521F07E2C5F2DC801DDCFC201B60157
:103D20000E94301EA1960FB6F894DEBF0FBECDBF25
:103D3000CF91DF911F910F91FF90EF90DF90CF9087
:103D4000BF90AF909F908F907F905F904F9008951D
:103D5000DC012115310541F4ED91FC910190F081D8
:103D6000E02D642F199508950E94441E0895CF9266
:103D7000DF92EF92FF920F931F93CF93DF93EC01AB
:103D80006A017B012115310541F4E881F981019037
:103D9000F081E02D642F19951FC02A303105D1F430
:103DA00077FF17C0E881F9810190F081E02D6DE285
:103DB00019958C0144275527BA014C195D096E09E4
:103DC0007F09CE012AE00E94441E9801280F391F66
:103DD00004C02AE00E94441E9C01C901DF91CF91DA
:103DE0001F910F91FF90EF90DF90CF900895EF9289
:103DF000FF920F931F937B019A010027F7FC009518
:103E0000102FB801A7010E94B71E1F910F91FF90BC
:103E1000EF9008950E94301E08957F928F929F9296
:103E2000AF92BF92CF92DF92EF92FF920F931F93C8
:103E3000CF93DF934C017A018B01722ECB01BA0133
:103E400020E030E040E050E00E94A73D87FD03C045
:103E5000C0E0D0E00EC0D401ED91FC910190F08162
:103E6000E02DC4016DE21995EC0117FB109517F9CF
:103E7000109520E030E040E05FE3AA240BC0CA01C7
:103E8000B90120E030E040E251E40E94AB3D9B01EB
:103E9000AC01A394A71498F3C801B7010E94433D55
:103EA0005B016C010E94183E7B018C01C401B801CA
:103EB000A7012AE030E00E94A81EC80FD91F772072
:103EC00039F0C40166E474E00E94301EC80FD91FA7
:103ED000C801B7010E94443E9B01AC01C601B50177
:103EE0000E94423D24C020E030E040E251E40E94C4
:103EF000FA3E7B018C010E94133E5B016C01CC24D5
:103F0000B7FCC094DC2CC401B601A5012AE030E066
:103F10000E94B71EC80FD91FC601B5010E94463EB8
:103F20009B01AC01C801B7010E94423D7A94772001
:103F3000D1F6CE01DF91CF911F910F91FF90EF90BD
:103F4000DF90CF90BF90AF909F908F907F9008951B
:103F50000E940D1F0895EF92FF920F931F937C0113
:103F60000E94301E8C01C7010E94F81D080F191F06
:103F7000C8011F910F91FF90EF900895EF92FF926B
:103F80000F931F937B018C016115710581059105CC
:103F900029F420E030E040E050E00BC00E940A3DF0
:103FA000A80197010E94C53FAC01CB01DA019C0139
:103FB000AD01B901CA011F910F91FF90EF900895D3
:103FC000EF92FF920F931F937B018C01621773078F
:103FD0008407950764F4261B370B480B590BCA015D
:103FE000B9010E94BE1FE60EF71E081F191FB70178
:103FF000C8011F910F91FF90EF900895009729F04D
:10400000BC0180E090E00E940F3D0895CF93DF93C4
:104010000E94B0170E943D16C0E4DAE10E94131618
:104020002097E1F30E94401AF9CF0895FC01138212
:10403000128283E395E09183808375836483578341
:1040400046837187608753874287158A1586148651
:104050001786168621E0248B8FEF9FEF938B828B40
:10406000918B808B268B08952F923F924F925F9277
:104070006F927F928F929F92AF92BF92CF92DF9278
:10408000EF92FF920F931F93DF93CF9300D00F9285
:10409000CDB7DEB73C017C836B836A015901FA829C
:1040A000E982222433249801241B350B37FF03C0F7
:1040B000309521953F4FC5014B815C81841B950B49
:1040C00097FF03C0909581959F4F821793075CF4EB
:1040D00081E0282E312CC601CB80DC809C838B8331
:1040E000C80185015C018B819C81A816B90644F446
:1040F000C501AB80BC809C838B83C80186016C01A9
:104100002501AB81BC814A1A5B0A7801EC18FD08D5
:10411000F7FE04C0F094E194F108F394C016D106C0
:1041200024F088248A94982C03C0B1E08B2E912C23
:10413000C20162E070E00E94903F8B0125C0D30174
:10414000ED91FC912114310441F00480F581E02DC2
:10415000C301B6014B815C8107C00480F581E02D6D
:10416000C3016B817C81A60129813A8119950E19C1
:104170001F0917FF04C0C80CD91C040D151DEB81C5
:10418000FC813196FC83EB834B815C81A416B506E0
:10419000B4F60F900F900F900F90CF91DF911F9179
:1041A0000F91FF90EF90DF90CF90BF90AF909F90D6
:1041B0008F907F906F905F904F903F902F900895D9
:1041C0004F925F926F927F928F929F92AF92BF9227
:1041D000CF92DF92EF92FF920F931F936C015B01DE
:1041E0004A0139012801DC01ED91FC910284F3853B
:1041F000E02D87011995D601ED91FC91A401415064
:104200005040440D551D0284F385E02DC601B501D3
:1042100093011995D601ED91FC910084F185E02D73
:10422000C601B501A40192011995D601ED91FC9149
:104230000894A108B108A60CB71C0084F185E02DF4
:10424000C601B501A401920119951F910F91FF902C
:10425000EF90DF90CF90BF90AF909F908F907F9026
:104260006F905F904F900895CF92DF92EF92FF9200
:104270000F931F93DC016B017801ED91FC918A0192
:1042800001501040020F131F0680F781E02D9601A8
:1042900019951F910F91FF90EF90DF90CF900895A7
:1042A000CF92DF92EF92FF920F931F93DC016A018E
:1042B000C9017801ED91FC9111979B01215030408B
:1042C000280F391F0680F781E02DCD018601199551
:1042D0001F910F91FF90EF90DF90CF9008956F9214
:1042E0007F928F929F92AF92BF92CF92DF92EF9286
:1042F000FF920F931F93CF93DF935C013A01690103
:104300004801EB01C60ED71E0DC0D501ED91FC9101
:104310000084F185E02DC501BE01A3019401870150
:1043200019952196CC15DD0584F3DF91CF911F916E
:104330000F91FF90EF90DF90CF90BF90AF909F9044
:104340008F907F906F900895EF92FF920F931F933D
:10435000FC017B01A081B181208531850285138517
:104360001E960D90BC91A02D60E070E040E050E002
:10437000FD0119951F910F91FF90EF9008952F92D5
:104380003F924F925F926F927F928F929F92AF92E5
:10439000BF92CF92DF92EF92FF920F931F93DF9322
:1043A000CF93CDB7DEB72F970FB6F894DEBF0FBE11
:1043B000CDBF5C015E834D8318870F83FA86E98643
:1043C000CB86DC0118968D919C9119976817790717
:1043D0000CF0A4C01A968D919C911B974817590711
:1043E0000CF09CC0EC2DF0E0FF87EE87CF01880F2A
:1043F000991F8E0F9F1F880F991F860F971F1816E2
:1044000019060CF08BC0CF01F3E0880F991FFA95C5
:10441000E1F7840F951F181619060CF07FC085E090
:10442000289FA00111245A8349832B011B011C8260
:104430005C81553011F480E005C0E981FA81EC5FC0
:10444000FD4F84912C863D866D807E8043011B82CA
:10445000C82EDD2480FF1CC0D501ED91FC91BB85E9
:10446000B13049F40480F581E02DC501B201A3010A
:104470002F81388522C00684F785E02DC5016C8523
:104480007D85A4012E853F858901EF80F88423C0B6
:10449000E985FA852F813885E217F307E9F0D50120
:1044A000ED91FC91BB85B13051F40480F581E02D94
:1044B000C501B201A30129853A8519950DC006846D
:1044C000F785E02DC5016C857D85A4012E853F858E
:1044D0008901E984FA841995EB81EF5FEB832E85DE
:1044E0003F85820E931E0894611C711CE83021F0F8
:1044F000D594C7948C2DACCF3C813F5F3C834E85D7
:104500005F85240E351E0894411C511C89819A81B7
:1045100001969A838983363009F08ACF2F960FB699
:10452000F894DEBF0FBECDBFCF91DF911F910F91E9
:10453000FF90EF90DF90CF90BF90AF909F908F90C3
:104540007F906F905F904F903F902F900895CF9203
:10455000EF92FF920F931F93CF93DF93EC01262FDF
:104560006A3061F42C8930E003E0220F331F0A9592
:10457000E1F78E859F85820F931F37C06D30C9F19B
:104580006C857D854E855F8508891989EA88FB8859
:10459000CC880E94BF212C8986E0289FB00111247D
:1045A0008C859D85680F791F7D876C878E89882310
:1045B00001F1422F50E08AEF9FEF9C01429FC00122
:1045C000439F900D529F900D112428853985820FAD
:1045D000931F861797076CF413E0440F551F1A9525
:1045E000E1F78E859F85840F951F9F878E871D8697
:1045F0001C8681E090E0DF91CF911F910F91FF9099
:10460000EF90CF900895FC017587648757874687A0
:104610000895FC01662309F461E0648B0895FC01B0
:10462000738B628B718B608B08950895DC015896B3
:104630008C915897882329F06EBD0DB407FEFDCFED
:10464000089530E840E050E070E0832F90E086234A
:1046500097235996ED91FC915A9796962C9196979F
:10466000892B21F08081822B808304C0808120955A
:10467000282320835B96ED91FC915C97808197962F
:104680009C919797892B80835B96ED91FC915C9729
:10469000908197968C919797809589238083369502
:1046A0004F5F5F4F4830510581F608950F931F9378
:1046B0008C01DC015F96ED91FC9190979081999629
:1046C0008C9199978095892380835D96ED91FC91DB
:1046D0005E97908198968C91809589238083C801FC
:1046E0000E941623D8015D96ED91FC915E97808122
:1046F00098969C91892B80831F910F9108950F9319
:104700001F938C01DC015F96ED91FC919097808165
:1047100099969C919997892B80835D96ED91FC9158
:104720005E97908198968C91809589238083C801AB
:104730000E941623D8015D96ED91FC915E978081D1
:1047400098969C91892B80831F910F910895CF9209
:10475000DF92EF92FF920F931F937C01162FC42ECE
:10476000D22E6AE20E945623C70160E00E947F2396
:10477000F70162A5610FC7010E947F23C70160E0B6
:104780000E947F23F70162A56D0DC7010E947F2360
:10479000C7016BE20E945623C70160E00E947F239D
:1047A000F70163A56C0DC7010E947F23C70160E07C
:1047B0000E947F23F70163A5600FC7010E947F233A
:1047C000C7016CE20E9456231F910F91FF90EF905A
:1047D000DF90CF900895FF920F931F938C01F62ED8
:1047E000672FDC015F96ED91FC91909780819996FF
:1047F0009C919997892B80835D96ED91FC915E97B2
:10480000908198968C91809589238083C8010E941D
:104810001623C8016F2D0E941623D8015D96ED91D5
:10482000FC915E97808198969C91892B80831F9143
:104830000F91FF900895FF920F931F93CF93DF93F3
:10484000EC01F22E132F77FD2EC08885998568170D
:1048500079074CF557FD27C08A859B85481759076E
:1048600014F5262F2F5F042F0F5FCE010E94A72380
:10487000EF8DF8A1808199A5892B8083ED8DFE8D28
:10488000908188A5809589238083CE01612F0E9425
:104890001623CE016F2D0E941623ED8DFE8D808193
:1048A00098A5892B8083DF91CF911F910F91FF9065
:1048B0000895DF92EF92FF920F931F93CF93DF93B0
:1048C000EC01FB017901D02E88859985681779075D
:1048D000D4F52A853B8542175307ACF5C701840FF1
:1048E000951F281739071CF47901E41AF50A042FDB
:1048F00001500E0DCE016E2F2E2F0E94A723EF8D9B
:10490000F8A1808199A5892B8083ED8DFE8D908102
:1049100088A580958923808308C0CE01612F0E94DD
:104920001623CE016D2D0E9416230894E108F1088C
:104930008FEFE8168FEFF80681F7ED8DFE8D808101
:1049400098A5892B8083DF91CF911F910F91FF90C4
:10495000EF90DF900895DF92EF92FF920F931F93F5
:10496000CF93DF93EC01FA017901D02E28853985A8
:1049700062177307D4F58A859B8548175907ACF5EC
:10498000C701860F971F281739071CF47901E61A0B
:10499000F70A262F21502E0DCE014E2F0E2F0E94EA
:1049A000A723EF8DF8A1808199A5892B8083ED8DB8
:1049B000FE8D908188A580958923808308C0CE01D3
:1049C000612F0E941623CE016D2D0E94162308949C
:1049D000E108F1088FEFE8168FEFF80681F7ED8D0B
:1049E000FE8D808198A5892B8083DF91CF911F91C7
:1049F0000F91FF90EF90DF900895EF92FF920F9349
:104A00001F93FC017B01A081B18120853185028546
:104A100013851E960D90BC91A02D60E070E040E0E3
:104A200050E0FD0119951F910F91FF90EF900895AF
:104A3000AF92BF92CF92DF92EF92FF920F931F93AC
:104A4000CF93DF936C015901E801DC0118962D9199
:104A50003C911997621773070CF057C01A96ED91A5
:104A6000FC911B974E175F070CF04FC0C501860FD6
:104A7000971F281739071CF45901A61AB70ACE0147
:104A8000840F951FE817F9071CF4EF01C41BD50B21
:104A9000262F21502A0D042F01500C0FC6010E9411
:104AA000A723D6015F96ED91FC919097808199960E
:104AB0009C919997892B80835D96ED91FC915E97EF
:104AC000908198968C918095892380838E010EC069
:104AD000C6016F2D0E941623C6016E2D0E9416235B
:104AE00021971C161D06A4F3015010401016110644
:104AF00014F4E501F6CFD6015D96ED91FC915E9739
:104B0000808198969C91892B8083DF91CF911F9112
:104B10000F91FF90EF90DF90CF90BF90AF900895EE
:104B2000662311F460E201C061E20E9456230895F9
:104B3000AF92BF92CF92DF92EF92FF920F931F93AB
:104B4000CF93DF935C01FB01EB012196D49031C040
:104B50008E010F5F1F4FFE016491C5010E94562315
:104B600078010894E11CF11CF801C4900C2D0F771A
:104B7000E701102F08C0FE012196E491C5016E2FB8
:104B80000E947F2311501123B1F7E701C00FD11DFF
:104B9000C7FE0EC0FE018491682F70E06F3F710563
:104BA00011F464EF71E0219680E090E00E945717C5
:104BB000DA94DD2069F6DF91CF911F910F91FF907C
:104BC000EF90DF90CF90BF90AF9008950F931F9319
:104BD000CF93DF93EC018B011BA61AA68AA161E09B
:104BE0000E94461889A161E00E944618E9A14E2F53
:104BF00050E0FA01EE5CFE4FE491F0E0EE0FFF1F93
:104C0000E250FF4F859194919E8F8D8FEAA12E2FB8
:104C100030E0F901EE5CFE4FE491F0E0EE0FFF1F93
:104C2000E250FF4F8591949198A38F8F48585E4F23
:104C3000FA01849188A728583E4FF901849189A7E9
:104C4000888D882361F00E94593B80E00E94483B98
:104C500081E00E943A3B80E00E94433B3DC08DA131
:104C600061E00E9446188CA161E00E944618EDA107
:104C70004E2F50E0FA01EE5CFE4FE491F0E0EE0FB3
:104C8000FF1FE250FF4FA591B491BC8FAB8FECA1F9
:104C90002E2F30E0F901EE5CFE4FE491F0E0EE0FD4
:104CA000FF1FE250FF4F859194919A8F898F48584A
:104CB0005E4FFA0194919FA328583E4FF9018491C9
:104CC0008EA38C91909598239C93E98DFA8D908179
:104CD0008EA1809589238083ED8DFE8D908188A59E
:104CE0008095892380838BA1882309F161E00E944C
:104CF00046188BA161E00E94F91864EF71E080E032
:104D000090E00E9457178BA160E00E94F91864EFB1
:104D100071E080E090E00E9457178BA161E00E9453
:104D2000F91864EF71E080E090E00E9457170115D8
:104D3000110521F0CE01B8010E949825DF91CF9195
:104D40001F910F9108951F93CF93DF93EC01162FBE
:104D50006FEF76E00E94E625112351F4CE016AE35D
:104D600077E00E94982582E08AA781E08BA705C0A2
:104D7000CE0167E477E00E949825CE0164E577E0F4
:104D80000E949825123041F4CE0166E30E9456231A
:104D9000CE0160EC0E947F231F8BDF91CF911F918A
:104DA0000895DF92EF92FF920F931F938C01F62EDE
:104DB000E42ED22E60E870E040EA50E00E94162017
:104DC0008BE495E0F80191838083F1A2E2A2D3A263
:104DD00081E0808F15A214A21F910F91FF90EF9098
:104DE000DF900895FC011382128288EE93E0A0E028
:104DF000B0E084839583A683B78383E695E09183AF
:104E00008083128E118E14860895FC0183E695E04E
:104E1000918380830895FC01A18DB28D109719F4C0
:104E200020E030E009C0ED91FC9111970190F081F4
:104E3000E02DCD0119959C01C9010895DC01599619
:104E4000ED91FC915A97309719F420E030E018C0AA
:104E5000248935894689578983859485A585B685B2
:104E6000281B390B4A0B5B0B2030B0E83B07B0E046
:104E70004B07B0E05B0720F02FEF3FE740E050E04A
:104E8000C9010895DC015996ED91FC915A9730972C
:104E900011F480E008958681811181E00895CF9317
:104EA000DF93EC01898D9A8D009741F00E941A30B2
:104EB000898D9A8D0E94153C1A8E198EDF91CF91A3
:104EC0000895FC01818D928D009711F480E0089582
:104ED0000E940A2F0895FC01818D928D009711F098
:104EE0000E94D02F0895FC01818D928D009719F4B6
:104EF00020E030E003C00E94F1309C01C901089518
:104F0000DF93CF930F92CDB7DEB7FC01818D928DE9
:104F1000009749F0BE016F5F7F4F41E050E00E9473
:104F2000F130019719F02FEF3FEF03C08981282F4F
:104F300030E0C9010F90CF91DF910895EF92FF9279
:104F40000F931F93DF93CF930F92CDB7DEB77C0102
:104F5000DC0159968D919C915A97009719F400E0C5
:104F600010E01FC0BE016F5F7F4F41E050E00E9424
:104F7000F130019719F00FEF1FEF13C08981082F4F
:104F800010E0D7015996ED91FC915A9743855485CD
:104F9000658576854150504060407040CF010E9449
:104FA0000A2FC8010F90CF91DF911F910F91FF90B1
:104FB000EF900895FC01818D928D009719F420E007
:104FC00030E003C00E9436339C01C9010895FC0102
:104FD000818D928D009719F420E030E003C00E948B
:104FE000EE349C01C9010895EF92FF920F931F9335
:104FF000CF93DF93EC01F62EE72E8A011B821A82F3
:1050000088EE93E0A0E0B0E08C839D83AE83BF8305
:1050100083E695E0998388838EE190E00E94783B57
:105020009A8F898F009791F0DC018F2D9E2D9C0126
:10503000F9018EE101900D928150E1F7CE010C96BD
:10504000B8014CE050E00E94333D188EDF91CF91C3
:105050001F910F91FF90EF90089582E090E0A0E003
:10506000B0E08093580890935908A0935A08B093E1
:105070005B0810926F08109279081092780885E703
:1050800095E0909377088093760810927C081092B0
:10509000990810929A0810929D0810929F080895FE
:1050A0002F923F924F925F926F927F928F929F9238
:1050B000AF92BF92CF92DF92EF92FF920F931F9326
:1050C000DF93CF93CDB7DEB7C954D0400FB6F89475
:1050D000DEBF0FBECDBF582E492EFB013A0119018C
:1050E00080A191A1998B888B25E735E03F872E879A
:1050F00082A18A8B83A18B8B84A18C8B85A196A1A5
:10510000A7A1B0A58D8B9E8BAF8BB88F81A592A5E3
:10511000A3A5B4A5898F9A8FAB8FBC8F85A596A5C3
:10512000A7A5B0A98D8F9E8FAF8FB8A381A989A3A2
:1051300082A993A9A4A9B5A98AA39BA3ACA3BDA343
:1051400086A997A9A0ADB1AD8EA39FA3A8A7B9A723
:1051500082AD93AD9BA78AA71FA61EA63DA72CA72D
:105160001AAA7A018E01025F1F4F3CE2A32EB12CD6
:10517000AC0EBD1E4E010894811C911C35C0D70198
:105180008C918F3221F40894E11CF11C2DC0422F28
:105190004E194D3008F04CE0C42EDD24C401B70197
:1051A000A6010E94333DF401EC0DFD1D1082C501E6
:1051B0000E941A30C501B801A40121E00E946E3599
:1051C000882351F4E52DF42D1382128285E795E0B2
:1051D0009183808316826AC0EC0CFD1CC8010E947A
:1051E0001A30C50158018C01C7016FE270E00E94BE
:1051F000283D9C01009719F6E618F708F101F182A5
:10520000E082E52DF42DD80112968D919C91139793
:105210009383828385E795E09183808314968C91B4
:105220001497848315968C911597858316968C9187
:105230001697868317962D913D914D915C911A9703
:1052400027833087418752871B962D913D914D9141
:105250005C911E9723873487458756871F962D912B
:105260003D914D915C9152972787308B418B528BAA
:1052700053968C915397838B54962D913D914D91DC
:105280005C915797248B358B468B578B58962D9175
:105290003D914D915C915B97208F318F428F538F61
:1052A0005C968D919C915D97958F848F852D942D23
:1052B000C75BDF4F0FB6F894DEBF0FBECDBFCF91F7
:1052C000DF911F910F91FF90EF90DF90CF90BF90F3
:1052D000AF909F908F907F906F905F904F903F9096
:1052E0002F9008959F92AF92BF92CF92DF92EF924C
:1052F000FF920F931F93DF93CF93CDB7DEB7CA57BB
:10530000D0400FB6F894DEBF0FBECDBFC82E992E89
:105310008A01D22E43E0A42EB12CAC0EBD1EC501D5
:10532000A8019E012F5F3F4F0E945028E980FA801C
:10533000E00EF11EF701808145E755E029858823BD
:1053400009F041C08D819E819CA38BA35AA349A3E0
:105350008F818DA388858EA32FA38A859B85AC859D
:10536000BD8588A799A7AAA7BBA78E859F85A88971
:10537000B9898CA79DA7AEA7BFA78A899B89AC894D
:10538000BD8988AB99ABAAABBBAB8E898CAB8F893F
:10539000988DA98DBA8D8DAB9EABAFABB8AF8B8D11
:1053A0009C8DAD8DBE8D89AF9AAFABAFBCAF8F8DED
:1053B00098A19EAF8DAF8C2D992DBE016F5D7F4F53
:1053C00048E454E0AAC0FE01EF5BFF4F1182108257
:1053D000DE01DF9611965C934E93FE01EB5BFF4F6F
:1053E00010822223A9F02250223050F4CD0166E72A
:1053F00078E0A7012D2D0E946E35882389F408C01E
:10540000CD01B501A7012D2D0E946E35882329F409
:105410008C2D992D0E94F22682C0C5010E941A305F
:10542000F6E0DF2259F0FE01ED5AFF4F4081518135
:1054300062817381CE01CF960E940A2F9E01235A6A
:105440003F4FFE01EF5BFF4F80819181F901938314
:10545000828385E795E091838083FE01ED5BFF4FBA
:105460008081F9018483FE01EC5BFF4F8081F901AB
:105470008583FE01EB5BFF4F8081F9018683FE018E
:10548000EA5BFF4F80819181A281B381F90187831B
:105490009087A187B287FE01E65BFF4F80819181F3
:1054A000A281B381F90183879487A587B687FE011E
:1054B000E25BFF4F80819181A281B381F9018787EF
:1054C000908BA18BB28BFE01EE5AFF4F8081F901C8
:1054D000838BFE01ED5AFF4F80819181A281B381C0
:1054E000F901848B958BA68BB78BFE01E95AFF4F90
:1054F00080819181A281B381F901808F918FA28FE8
:10550000B38FFE01E55AFF4F80819181F901958F9C
:10551000848F8C2D992DB901A7010E94F4278C2D21
:10552000992DC658DF4F0FB6F894DEBF0FBECDBF22
:10553000CF91DF911F910F91FF90EF90DF90CF906F
:10554000BF90AF909F900895CF92DF92EF920F930C
:10555000CF93DF93EC01362F542F722FE02E6CE3A4
:10556000C62ED12CC80ED91EC60161E0432F252FAF
:10557000072F0E94922D8823D1F00C2FED2ECE0103
:10558000B60141E00E940F37882339F4CE01B601FD
:1055900040E00E940F37882351F0CE014E96602FD5
:1055A0007E2D0E945032882319F081E001C080E0F6
:1055B000DF91CF910F91EF90DF90CF900895382F2A
:1055C0008091A3088F3F29F43EBD0DB407FEFDCFA7
:1055D0000895F894A091A408B091A5085091A60848
:1055E000252F2095E091A708F091A8084091A908DF
:1055F000642F609590E08C9182238C9337FF03C0D9
:105600008081842B02C08081862380838C91852BAE
:105610008C939F5F983011F0330FEDCF00000000A6
:10562000000000008C9128232C9378940895809199
:10563000A3088F3F21F40E94DF2A2EB530C0F894D2
:10564000E091A708F091A80880819091A908892B82
:105650008083E091A408F091A5086091A608A0912C
:10566000AA08B091AB088091AC08482F50E0762F83
:10567000709520E030E08081862B8083220F8C9112
:1056800090E084239523892B09F021608081872372
:105690008083000000003F5F383069F77894822FE4
:1056A0000895FC01673020F086E1858380E008954D
:1056B000262F30E060FD02C0663019F48DB58E7F74
:1056C00002C08DB581608DBD8CB58C7F8CBD4CB515
:1056D00022FD02C090E001C092E036952795822F0E
:1056E0008170842B892B8CBD81E008950F931F93CB
:1056F000CF93DF938B010E944917EB010E94172B78
:105700008F3F11F481E008C00E9449176C1B7D0B8C
:105710006017710798F380E0DF91CF911F910F918F
:105720000895FC01848160E00E94F9180895FC014D
:10573000848161E00E94F9180895CF92DF92EF9280
:10574000FF920F931F93CF93DF937C016A01FC01BB
:105750008485882319F40FEF1FEF30C000E010E0BC
:1057600040E050E0212F332727FD3A95F601E40F62
:10577000F51F808190E0282739273070C901F4E0B7
:1057800095958795FA95E1F782279327102F0027A3
:10579000082719279C01322F22273295307F0227B4
:1057A000132725E0880F991F2A95E1F70827192765
:1057B0004F5F5F4FF2E040305F07A1F6862F0E94F7
:1057C000DF2AC0E0D0E0F601EC0FFD1F80810E94CF
:1057D000DF2A219682E0C030D807A9F7812F9927C8
:1057E00087FD9A950E94DF2A802F0E94DF2A0E945F
:1057F000172BF70182878F71853011F481E007C084
:1058000081E1F7018583C7010E94972B80E0DF913A
:10581000CF911F910F91FF90EF90DF90CF9008955F
:105820000F931F93CF93DF93EC010E9449178B01D5
:1058300009C00E944917601B710B6D52714010F036
:105840008FE00AC00E94172B8A878F3F91F38E3F0B
:1058500011F481E006C08DE08D83CE010E94972B6C
:1058600080E0DF91CF911F910F910895CF93DF9347
:10587000EC018E81882319F40FC00E94172B8F81B1
:105880009885019698878F83019782509240A8F35C
:10589000CE010E94972B1E82DF91CF910895DF9257
:1058A000EF92FF920F931F93CF93DF93EC01D62ECD
:1058B00079018A010E94362CCE010E94912BCE01E3
:1058C0006CE271E00E94762B8D2D80640E94DF2AAD
:1058D000812F9927AA27BB270E94DF2AC801AA2760
:1058E000BB270E94DF2ABB27A12F902F8F2D0E945C
:1058F000DF2A8E2D0E94DF2ADD2011F485E906C003
:1059000088E0D81611F487E801C08FEF0E94DF2AE3
:1059100010E00E94172B8A8787FF02C01150C9F739
:10592000DF91CF911F910F91FF90EF90DF9008953D
:10593000CF92DF92EF92FF920F931F93CF93DF935B
:10594000EC017A018B016901411551056105710571
:1059500011F482E133C08B85833039F039E0EE0CED
:10596000FF1C001F111F3A95D1F7CE0168E1A80175
:1059700097010E944F2C882311F084E01FC0CE01B4
:105980006EEFA6010E949D2B8823C9F0CE0168E529
:1059900072E00E94762B882311F485E10FC0CE01BE
:1059A0006DE020E030E040E050E00E944F2C882382
:1059B00021F40E94172B882379F084E18D83CE0196
:1059C0000E94972B80E0DF91CF911F910F91FF9064
:1059D000EF90DF90CF900895CE010E94972B81E049
:1059E000F2CF6F927F928F929F92AF92BF92CF929F
:1059F000DF92EF92FF920F931F93CF93DF93EC010F
:105A00005A016B01390148010115110509F46AC0F9
:105A1000C801820F931F8150924008F05EC08E81B2
:105A2000882371F088819981AA81BB814817590721
:105A30006A077B0729F48F8198856816790650F5E7
:105A4000A882B982CA82DB828B85833039F0E9E093
:105A5000AA0CBB1CCC1CDD1CEA95D1F7CE0161E180
:105A6000A60195010E944F2C882319F083E08D83B5
:105A700034C0CE010E94102C882379F118861F8231
:105A800081E08E8307C00E94172B8F819885019635
:105A900098878F838F81988586159705A0F300E0FE
:105AA00010E008C00E94172BF701E00FF11F808360
:105AB0000F5F1F4F08151905A8F32F813885280D92
:105AC000391D38872F838985882319F0205032406B
:105AD00048F0CE010E94362C05C0CE010E94972BC3
